{
  "contractName": "HalalProductRegistry",
  "abi": [
    {
      "inputs": [],
      "name": "productCount",
      "outputs": [
        {
          "internalType": "uint256",
          "name": "",
          "type": "uint256"
        }
      ],
      "stateMutability": "view",
      "type": "function",
      "constant": true
    },
    {
      "inputs": [
        {
          "internalType": "uint256",
          "name": "",
          "type": "uint256"
        }
      ],
      "name": "products",
      "outputs": [
        {
          "internalType": "string",
          "name": "name",
          "type": "string"
        },
        {
          "internalType": "bool",
          "name": "isHalal",
          "type": "bool"
        }
      ],
      "stateMutability": "view",
      "type": "function",
      "constant": true
    },
    {
      "inputs": [
        {
          "internalType": "string",
          "name": "_name",
          "type": "string"
        },
        {
          "internalType": "bool",
          "name": "_isHalal",
          "type": "bool"
        }
      ],
      "name": "addProduct",
      "outputs": [],
      "stateMutability": "nonpayable",
      "type": "function"
    },
    {
      "inputs": [
        {
          "internalType": "uint256",
          "name": "_productId",
          "type": "uint256"
        }
      ],
      "name": "isProductHalal",
      "outputs": [
        {
          "internalType": "bool",
          "name": "",
          "type": "bool"
        }
      ],
      "stateMutability": "view",
      "type": "function",
      "constant": true
    }
  ],
  "bytecode": "0x608060405234801561001057600080fd5b506109e6806100206000396000f3fe608060405234801561001057600080fd5b506004361061004c5760003560e01c80637acc0b20146100515780637fc90a8c146100825780638e37de3a146100b2578063e0f6ef87146100ce575b600080fd5b61006b600480360381019061006691906102e5565b6100ec565b6040516100799291906103bd565b60405180910390f35b61009c600480360381019061009791906102e5565b6101a5565b6040516100a991906103ed565b60405180910390f35b6100cc60048036038101906100c79190610569565b610215565b005b6100d6610295565b6040516100e391906105d4565b60405180910390f35b600060205280600052604060002060009150905080600001805461010f9061061e565b80601f016020809104026020016040519081016040528092919081815260200182805461013b9061061e565b80156101885780601f1061015d57610100808354040283529160200191610188565b820191906000526020600020905b81548152906001019060200180831161016b57829003601f168201915b5050505050908060010160009054906101000a900460ff16905082565b600060015482106101eb576040517f08c379a00000000000000000000000000000000000000000000000000000000081526004016101e29061069b565b60405180910390fd5b60008083815260200190815260200160002060010160009054906101000a900460ff169050919050565b6040518060400160405280838152602001821515815250600080600154815260200190815260200160002060008201518160000190816102559190610867565b5060208201518160010160006101000a81548160ff0219169083151502179055509050506001600081548092919061028c90610968565b91905055505050565b60015481565b6000604051905090565b600080fd5b600080fd5b6000819050919050565b6102c2816102af565b81146102cd57600080fd5b50565b6000813590506102df816102b9565b92915050565b6000602082840312156102fb576102fa6102a5565b5b6000610309848285016102d0565b91505092915050565b600081519050919050565b600082825260208201905092915050565b60005b8381101561034c578082015181840152602081019050610331565b60008484015250505050565b6000601f19601f8301169050919050565b600061037482610312565b61037e818561031d565b935061038e81856020860161032e565b61039781610358565b840191505092915050565b60008115159050919050565b6103b7816103a2565b82525050565b600060408201905081810360008301526103d78185610369565b90506103e660208301846103ae565b9392505050565b600060208201905061040260008301846103ae565b92915050565b600080fd5b600080fd5b7f4e487b7100000000000000000000000000000000000000000000000000000000600052604160045260246000fd5b61044a82610358565b810181811067ffffffffffffffff8211171561046957610468610412565b5b80604052505050565b600061047c61029b565b90506104888282610441565b919050565b600067ffffffffffffffff8211156104a8576104a7610412565b5b6104b182610358565b9050602081019050919050565b82818337600083830152505050565b60006104e06104db8461048d565b610472565b9050828152602081018484840111156104fc576104fb61040d565b5b6105078482856104be565b509392505050565b600082601f83011261052457610523610408565b5b81356105348482602086016104cd565b91505092915050565b610546816103a2565b811461055157600080fd5b50565b6000813590506105638161053d565b92915050565b600080604083850312156105805761057f6102a5565b5b600083013567ffffffffffffffff81111561059e5761059d6102aa565b5b6105aa8582860161050f565b92505060206105bb85828601610554565b9150509250929050565b6105ce816102af565b82525050565b60006020820190506105e960008301846105c5565b92915050565b7f4e487b7100000000000000000000000000000000000000000000000000000000600052602260045260246000fd5b6000600282049050600182168061063657607f821691505b602082108103610649576106486105ef565b5b50919050565b7f50726f64756374206e6f74207265676973746572656400000000000000000000600082015250565b600061068560168361031d565b91506106908261064f565b602082019050919050565b600060208201905081810360008301526106b481610678565b9050919050565b60008190508160005260206000209050919050565b60006020601f8301049050919050565b600082821b905092915050565b60006008830261071d7fffffffffffffffffffffffffffffffffffffffffffffffffffffffffffffffff826106e0565b61072786836106e0565b95508019841693508086168417925050509392505050565b6000819050919050565b600061076461075f61075a846102af565b61073f565b6102af565b9050919050565b6000819050919050565b61077e83610749565b61079261078a8261076b565b8484546106ed565b825550505050565b600090565b6107a761079a565b6107b2818484610775565b505050565b5b818110156107d6576107cb60008261079f565b6001810190506107b8565b5050565b601f82111561081b576107ec816106bb565b6107f5846106d0565b81016020851015610804578190505b610818610810856106d0565b8301826107b7565b50505b505050565b600082821c905092915050565b600061083e60001984600802610820565b1980831691505092915050565b6000610857838361082d565b9150826002028217905092915050565b61087082610312565b67ffffffffffffffff81111561088957610888610412565b5b610893825461061e565b61089e8282856107da565b600060209050601f8311600181146108d157600084156108bf578287015190505b6108c9858261084b565b865550610931565b601f1984166108df866106bb565b60005b82811015610907578489015182556001820191506020850194506020810190506108e2565b868310156109245784890151610920601f89168261082d565b8355505b6001600288020188555050505b505050505050565b7f4e487b7100000000000000000000000000000000000000000000000000000000600052601160045260246000fd5b6000610973826102af565b91507fffffffffffffffffffffffffffffffffffffffffffffffffffffffffffffffff82036109a5576109a4610939565b5b60018201905091905056fea26469706673582212203340d9351008bce417c6b5411bbe6e335d35f86d2ea7bca13e3ac09929e47b2a64736f6c63430008130033",
  "immutableReferences": {},
  "source": "// SPDX-License-Identifier: MIT\r\npragma solidity ^0.8.0;\r\n\r\ncontract HalalProductRegistry {\r\n    struct Product {\r\n        string name;\r\n        bool isHalal;\r\n    }\r\n\r\n    mapping(uint256 => Product) public products;\r\n    uint256 public productCount;\r\n\r\n    function addProduct(string memory _name, bool _isHalal) public {\r\n        products[productCount] = Product(_name, _isHalal);\r\n        productCount++;\r\n    }\r\n\r\n    function isProductHalal(uint256 _productId) public view returns (bool) {\r\n        require(_productId < productCount, \"Product not registered\");\r\n        return products[_productId].isHalal;\r\n    }\r\n}\r\n",
  "sourcePath": "C:\\Users\\Acer\\compsecbc\\contracts\\HalalProductRegistry.sol",
  "compiler": {
    "name": "solc",
    "version": "0.8.19+commit.7dd6d404.Emscripten.clang"
  },
  "schemaVersion": "3.4.16",
  "updatedAt": "2024-06-25T00:17:40.089Z",
  "networkType": "ethereum",
  "devdoc": {
    "kind": "dev",
    "methods": {},
    "version": 1
  },
  "userdoc": {
    "kind": "user",
    "methods": {},
    "version": 1
  }
}